:100000000C9435000C945D000C945D000C945D0024
:100010000C945D000C945D000C945D000C945D00EC
:100020000C945D000C945D000C945D000C945D00DC
:100030000C945D000C945D000C945D000C945D00CC
:100040000C94BA030C945D000C947A030C94540342
:100050000C945D000C945D000C945D000C945D00AC
:100060000C945D000C945D007C0511241FBECFEF45
:10007000D8E0DEBFCDBF21E0A6E5B1E001C01D9212
:10008000AA3CB207E1F711E0A0E0B1E0ECE4FCE04B
:1000900002C005900D92A635B107D9F710E0C5E36F
:1000A000D0E004C02197FE010E941906C433D10795
:1000B000C9F70E9404040C9424060C9400002FB786
:1000C000F8948091610190916201A0916301B091D7
:1000D00064012FBF80936D0190936E01A0936F0117
:1000E000B0937001E0916501F09166010484F5859B
:1000F000E02D85E691E0099597FF26C02FB7F8948B
:100100008091610190916201A0916301B0916401BD
:100110002FBF40916D0150916E0160916F01709100
:100120007001841B950BA60BB70B40916901509190
:100130006A0160916B0170916C0184179507A607A5
:10014000B70780F28FEF9FEF0895CF92DF92EF9283
:10015000FF920F931F93CF93DF936C017A018B0172
:10016000C0E0D0E0CE15DF0589F0D8016D918D019A
:10017000D601ED91FC910190F081E02DC601099529
:10018000892B11F47E0102C02196ECCFC701DF91CB
:10019000CF911F910F91FF90EF90DF90CF90089536
:1001A000089580E090E00895FC01538D448D252F43
:1001B00030E0842F90E0821B930B541710F041968F
:1001C000089501970895FC01918D828D981779F01B
:1001D000828DDF01A80FB11D5D962C91828D8F5FFE
:1001E00066E30E94C305928F822F90E008958FEFFF
:1001F0009FEF0895FC01918D828D981731F0828DCB
:10020000E80FF11D858D90E008958FEF9FEF089521
:10021000FC01918D228D892F90E0C696821B910959
:1002200066E370E00E94CF05089585E691E00E94A4
:10023000080121E0892B09F420E0822F0895FC01B8
:10024000848DDF01A80FB11DAD5ABF4F2C91848D55
:1002500090E0019662E170E00E94E305848FA68938
:10026000B7892C93A089B1898C9180648C93938DEC
:10027000848D981306C00288F389E02D80818F7DDC
:1002800080830895FF920F931F93CF93DF93EC0128
:1002900081E0888F9B8D8C8D981305C0E889F98942
:1002A000808185FD26C0162F8B8D90E0019662E13E
:1002B00070E00E94E305082FF82E8C8DF8120CC018
:1002C0000FB607FCFACFE889F989808185FFF5CF61
:1002D000CE010E941F01F1CF8B8DFE01E80FF11DB1
:1002E000ED5AFF4F10830B8FEA89FB898081806272
:1002F00007C0EE89FF896083E889F989808180647D
:10030000808381E090E0DF91CF911F910F91FF906A
:100310000895CF93DF93EC01888D8823C9F0EA8993
:10032000FB89808185FD05C0A889B9898C9186FDEE
:100330000FC00FB607FCF5CF808185FFF2CFA889EB
:10034000B9898C9185FFEDCFCE010E941F01E7CFC7
:10035000DF91CF91089580E090E0892B29F00E94F1
:10036000150181110C94000008953FB7F894809115
:10037000590190915A01A0915B01B0915C0126B5A1
:10038000A89B05C02F3F19F00196A11DB11D3FBFCD
:10039000BA2FA92F982F8827820F911DA11DB11D5B
:1003A000BC01CD0142E0660F771F881F991F4A9557
:1003B000D1F708958F929F92AF92BF92CF92DF9222
:1003C000EF92FF926B017C010E94B5014B015C0131
:1003D000C114D104E104F104F1F00E94B501DC0183
:1003E000CB0188199909AA09BB09883E9340A10548
:1003F000B10570F321E0C21AD108E108F10888EED6
:10040000880E83E0981EA11CB11CC114D104E10424
:10041000F10419F7DDCFFF90EF90DF90CF90BF9000
:10042000AF909F908F900895449A089561E070E096
:1004300080E090E00C94DA01009769F0FC010190F3
:100440000020E9F73197AF01481B590BBC0185E645
:1004500091E00C94A50080E090E00895CF93DF93A5
:100460000E941C02EC0182E191E00E941C028C0FB0
:100470009D1FDF91CF9108958F929F92AF92BF926F
:100480000F931F93CF93DF93CDB7DEB7A1970FB62E
:10049000F894DEBF0FBECDBF19A2423008F44AE087
:1004A0008E010F5D1F4F842E912CA12CB12CA50124
:1004B00094010E94F705E62FB901CA010150110904
:1004C000EA3014F4E05D01C0E95CD801EC93232B21
:1004D000242B252B61F7C8010E941C02A1960FB6A0
:1004E000F894DEBF0FBECDBFDF91CF911F910F916A
:1004F000BF90AF909F908F900895CF93DF93BC01F2
:1005000080E090E04AE00E943C02EC0182E191E050
:100510000E941C028C0F9D1FDF91CF9108950F93B5
:100520001F93CF93DF931F92CDB7DEB7082F909123
:100530005601980F9093560180915701980F909310
:100540005701449A3C9A459A3D9A44980E94160253
:100550000E9414020E94160244980E9416020E94F1
:1005600014020E94160244980E94160245980E94A6
:100570001602198210E089818830C8F489819801B7
:1005800002C0359527958A95E2F720FF03C00E94A7
:10059000140201C044980E941602459A0E94160255
:1005A00045980E94160289818F5F8983E4CF459A1E
:1005B0000E9414020F90DF91CF911F910F91089527
:1005C000CF92DF92EF92FF920F931F93CF93DF931F
:1005D00000D000D01F92CDB7DEB789836A837B83BA
:1005E0001C828AE70E948F0282E60E948F0210928C
:1005F0005701109256011D828D81843070F48D81D7
:10060000E1E0F0E0EC0FFD1FE80FF11D80810E949A
:100610008F028D818F5F8D83EFCF6DE270E080E080
:1006200090E00E94DA0144983C98459800E010E080
:10063000C12CD12C76010E941602459A6CE070E024
:1006400080E090E00E94DA0186B18295817090E0AE
:10065000A0E0B0E0002E04C0880F991FAA1FBB1FA6
:100660000A94D2F7C82AD92AEA2AFB2A0E9416023B
:1006700045980E9416020F5F1F4F00321105D9F6F0
:10068000449A3C9AC701B6010F900F900F900F90BB
:100690000F90DF91CF911F910F91FF90EF90DF901E
:1006A000CF9008950E941F061F920F920FB60F92CF
:1006B00011242F933F934F935F936F937F938F9367
:1006C0009F93AF93BF93EF93FF9385E691E00E94D2
:1006D0001F01FF91EF91BF91AF919F918F917F91FA
:1006E0006F915F914F913F912F910F900FBE0F909F
:1006F0001F9018951F920F920FB60F9211242F93EF
:100700005F936F937F938F939F93AF93BF93EF9379
:10071000FF93E0917501F09176018081E0917B017A
:10072000F0917C0182FD16C0208180917E0190E0D5
:10073000019666E370E00E94CF0590917F019817C3
:1007400051F0E0917E01F0E0EB59FE4F258F809350
:100750007E0101C08081FF91EF91BF91AF919F9188
:100760008F917F916F915F912F910F900FBE0F909E
:100770001F9018951F920F920FB60F9211242F936E
:100780003F938F939F93AF93BF938091610190911B
:100790006201A0916301B09164013091580123E09E
:1007A000230F2D3720F40196A11DB11D05C026E8A9
:1007B000230F0296A11DB11D209358018093610162
:1007C00090936201A0936301B093640180915901F9
:1007D00090915A01A0915B01B0915C010196A11D1D
:1007E000B11D8093590190935A01A0935B01B0937E
:1007F0005C01BF91AF919F918F913F912F910F908D
:100800000FBE0F901F901895CF93DF9300D000D0AC
:10081000CDB7DEB7789484B5826084BD84B581603D
:1008200084BD85B5826085BD85B5816085BD8091BB
:100830006E00816080936E00109281008091810033
:10084000826080938100809181008160809381002B
:10085000809180008160809380008091B1008460ED
:100860008093B1008091B00081608093B00080914E
:100870007A00846080937A0080917A00826080930D
:100880007A0080917A00816080937A0080917A006A
:10089000806880937A001092C100E0917501F09118
:1008A000760182E08083E0917101F0917201108203
:1008B000E0917301F091740180E1808310927D01D9
:1008C000E0917901F0917A0186E08083E0917701EF
:1008D000F0917801808180618083E0917701F091CF
:1008E0007801808188608083E0917701F0917801C0
:1008F000808180688083E0917701F0917801808128
:100900008F7D808385E191E00E942E02449A3C9A7B
:10091000459A3D9AA12CB12C04E110E085E691E0C6
:100920000E940801181619060CF099C085E691E09E
:100930000E94E300833799F58BE191E00E942E023B
:10094000B80182E00E94E00260935D0170935E0155
:1009500080935F019093600180E391E00E941C020C
:1009600060915D0170915E0180E090E04AE00E943C
:100970003C026CE285E691E00E94420180915F01B9
:10098000909160019F770E947D0268EE73E080E0A5
:1009900090E00E94DA01AA24A394B12CBFCF84373F
:1009A00009F056C00E945F00FC0197FD11C08D3216
:1009B000910591F0C0970A9778F0E0916501F09168
:1009C00066010284F385E02D85E691E00995EACF82
:1009D000C12CD12C76012DC020E030E0A90110E01F
:1009E000E130F10509F066C0E0916501F091660122
:1009F0000284F385E02D85E691E029833A834B83D9
:100A00005C8309950E945F00FC01C09729813A81AF
:100A10004B815C810A9720F3E130F10509F3112342
:100A200009F467C0CC24DD247601C21AD30AE40A93
:100A3000F50A860187E391E00E941C02C6010E942C
:100A40007D0268EE73E080E090E00E94DA0107C06A
:100A5000873729F48BE491E00E942E0203C0AB2873
:100A600009F099CFB80181E00E94E00260935D0136
:100A700070935E0180935F019093600180E391E049
:100A80000E941C0260915D0170915E0180E090E027
:100A90004AE00E943C026CE285E691E00E9442013D
:100AA00080915F01909160019F770E947D02A12C4F
:100AB000B12C34CFED32F105D1F0CF01C0970A97B8
:100AC00008F092CFAAE0B0E00E94A9056F01FF0FE5
:100AD000EE08FF08DC01CB018C0D9D1DAE1DBF1D76
:100AE0009C01AD0120533109410951097DCF11E02D
:100AF0007BCF69017A019DCFE5E6F1E01382128296
:100B000088EE93E0A0E0B0E084839583A683B7836A
:100B100084E091E09183808385EC90E095878487E1
:100B200084EC90E09787868780EC90E0918B808BB7
:100B300081EC90E0938B828B82EC90E0958B848BA0
:100B400086EC90E0978B868B118E128E138E148E0E
:100B500008950E94B405A59F900DB49F900DA49F89
:100B6000800D911D11240895A29FB001B39FC00173
:100B7000A39F700D811D1124911DB29F700D811DC9
:100B80001124911D0895991B79E004C0991F9617AF
:100B900008F0961B881F7A95C9F780950895AA1BBF
:100BA000BB1B51E107C0AA1FBB1FA617B70710F058
:100BB000A61BB70B881F991F5A95A9F7809590958A
:100BC000BC01CD01089597FB072E16F4009407D0C1
:100BD00077FD09D00E94CF0507FC05D03EF4909523
:100BE00081959F4F0895709561957F4F0895A1E27B
:100BF0001A2EAA1BBB1BFD010DC0AA1FBB1FEE1F97
:100C0000FF1FA217B307E407F50720F0A21BB30BE1
:100C1000E40BF50B661F771F881F991F1A9469F75D
:100C200060957095809590959B01AC01BD01CF01B9
:100C30000895EE0FFF1F0590F491E02D099481E0D7
:0C0C400090E0F8940C942406F894FFCF88
:100C4C00000000004201A500D40089010801E30066
:100C5C00FA000D0A00535441525400474956494E6C
:100C6C004720736C65657020434F4D4D414E4400D9
:100C7C00524553503A2000474956494E4720534C51
:100C8C004545502054494D453A2000434C5220577D
:060C9C0041495421000053
:00000001FF
