:100000000C9435000C945D000C945D000C945D0024
:100010000C945D000C945D000C945D000C945D00EC
:100020000C945D000C945D000C945D000C945D00DC
:100030000C945D000C945D000C945D000C945D00CC
:100040000C9469020C945D000C9437020C9411021C
:100050000C945D000C945D000C945D000C945D00AC
:100060000C945D000C945D00B30211241FBECFEF11
:10007000D8E0DEBFCDBF11E0A0E0B1E0EEEAF9E0EC
:1000800002C005900D92AC33B107D9F722E0ACE382
:10009000B1E001C01D92A233B207E1F710E0C5E361
:1000A000D0E004C02197FE010E94A804C433D10708
:1000B000C9F70E94F2020C94D5040C940000EDE400
:1000C000F1E0A089B18982E08C93A485B5851C926A
:1000D000A685B78580E18C93108EA489B58986E0CA
:1000E0008C93A289B3898C9180618C93A289B38906
:1000F0008C9188608C93A289B3898C9180688C9351
:100100000288F389E02D80818F7D80830895CF92CE
:10011000DF92EF92FF920F931F93CF93DF936C01C7
:100120007A018B01C0E0D0E0CE15DF0589F0D8015F
:100130006D918D01D601ED91FC910190F081E02D42
:10014000C6010995892B11F47E0102C02196ECCFDE
:10015000C701DF91CF911F910F91FF90EF90DF903A
:10016000CF900895FC01918D828D981761F0828D5A
:10017000DF01A80FB11D5D968C91928D9F5F9F73DB
:10018000928F90E008958FEF9FEF0895FC01918D7D
:10019000828D981731F0828DE80FF11D858D90E0EA
:1001A00008958FEF9FEF0895FC01918D228D892F87
:1001B00090E0805C9F4F821B91098F73992708956F
:1001C0008DE491E00E94D40021E0892B09F420E025
:1001D000822F0895FC01848DDF01A80FB11DA35A61
:1001E000BF4F2C91848D90E001968F739927848F57
:1001F000A689B7892C93A089B1898C9180648C934E
:10020000938D848D981306C00288F389E02D808138
:100210008F7D80830895EF92FF920F931F93CF936A
:10022000DF93EC0181E0888F9B8D8C8D981305C046
:10023000E889F989808185FD24C0F62E0B8D10E0B8
:100240000F5F1F4F0F731127E02E8C8DE8120CC02B
:100250000FB607FCFACFE889F989808185FFF5CFD1
:10026000CE010E94EA00F1CF8B8DFE01E80FF11D57
:10027000E35AFF4FF0820B8FEA89FB89808180620D
:1002800007C0EE89FF896083E889F98980818064ED
:10029000808381E090E0DF91CF911F910F91FF90DB
:1002A000EF900895CF93DF93EC01888D8823C9F0F8
:1002B000EA89FB89808185FD05C0A889B9898C916F
:1002C00086FD0FC00FB607FCF5CF808185FFF2CF0A
:1002D000A889B9898C9185FFEDCFCE010E94EA00F3
:1002E000E7CFDF91CF91089580E090E0892B29F04E
:1002F0000E94E00081110C94000008952FB7F8943B
:1003000060914101709142018091430190914401BB
:100310002FBF08958F929F92AF92BF92CF92DF929C
:10032000EF92FF926B017C010E947E014B015C0108
:10033000C60ED71EE81EF91E0E947E0168157905BB
:100340008A059B0528F0C616D706E806F906A0F729
:10035000FF90EF90DF90CF90BF90AF909F908F90E5
:1003600008950E94AE046115710579F0FB010190BA
:100370000020E9F73197AF01461B570BDC01ED91E7
:10038000FC910280F381E02D099480E090E00895D3
:100390004F925F926F927F92EF92FF920F931F9313
:1003A000CF93DF93CDB7DEB7A1970FB6F894DEBF3A
:1003B0000FBECDBF7C01FA01CB0119A2223008F497
:1003C0002AE08E010F5D1F4F422E512C612C712CA3
:1003D000BF01A30192010E94B304F901CA010150B7
:1003E00011096A3014F4605D01C0695CD8016C9336
:1003F000232B242B252B61F7B801C7010E94B301E1
:10040000A1960FB6F894DEBF0FBECDBFDF91CF919E
:100410001F910F91FF90EF907F906F905F904F90A2
:1004200008951F920F920FB60F9211242F933F93AE
:100430004F935F936F937F938F939F93AF93BF93EC
:10044000EF93FF938DE491E00E94EA00FF91EF911A
:10045000BF91AF919F918F917F916F915F914F91DC
:100460003F912F910F900FBE0F901F9018951F92E4
:100470000F920FB60F9211242F938F939F93EF93A8
:10048000FF93E0915D01F0915E018081E091630155
:10049000F091640182FD12C09081809166018F5FAE
:1004A0008F7320916701821751F0E0916601F0E0AF
:1004B000E35BFE4F958F8093660101C08081FF91C1
:1004C000EF919F918F912F910F900FBE0F901F90E2
:1004D00018951F920F920FB60F9211242F933F93EE
:1004E0008F939F93AF93BF9380914101909142016D
:1004F000A0914301B09144013091400123E0230FCA
:100500002D3720F40196A11DB11D05C026E8230F4B
:100510000296A11DB11D209340018093410190934B
:100520004201A0934301B093440180913C0190911A
:100530003D01A0913E01B0913F010196A11DB11D69
:1005400080933C0190933D01A0933E01B0933F0105
:10055000BF91AF919F918F913F912F910F900FBEBF
:100560000F901F901895EDE4F1E01382128288EE4F
:1005700093E0A0E0B0E084839583A683B78384E012
:1005800091E09183808385EC90E09587848784EC6B
:1005900090E09787868780EC90E0918B808B81EC50
:1005A00090E0938B828B82EC90E0958B848B86EC31
:1005B00090E0978B868B118E128E138E148EEAEE3E
:1005C000F1E0168217821086118612861386148631
:1005D000158616861786108A118A128A138A148A3B
:1005E000158A0895789484B5826084BD84B581604D
:1005F00084BD85B5826085BD85B5816085BD8091EE
:100600006E00816080936E00109281008091810065
:10061000826080938100809181008160809381005D
:10062000809180008160809380008091B10084601F
:100630008093B1008091B00081608093B000809180
:100640007A00846080937A0080917A00826080933F
:100650007A0080917A00816080937A0080917A009C
:10066000806880937A001092C10010922E0210923E
:100670002F0210923002109231021092EC0110926F
:10068000ED011092EE011092EF0168EB7BE080E04B
:1006900090E00E948A018DE491E090932D02809376
:1006A0002C020E945F000E947E016093EC01709317
:1006B000ED018093EE019093EF0160E171E0809194
:1006C0002C0290912D020E94B3016AE070E080E05C
:1006D00090E00E948A0181E0809300020E945F0006
:1006E00062E271E08DE491E00E94B3016FE171E09C
:1006F0008DE491E00E94B3018AB18AB95B9A389A7D
:10070000409A569A5E9A0E947E01672B682B692B4D
:1007100041F40E947E01623071058105910508F463
:100720000FC10E947E016093490170934A0180933A
:100730004B0190934C01C0904501D0904601E09050
:100740004701F09048016C157D058E059F0540F42A
:10075000609345017093460180934701909348014F
:10076000C0904501D0904601E0904701F0904801CB
:100770009B01AC012C193D094E095F0969017A0101
:100780003AEFC316D104E104F10408F4D9C0609330
:10079000450170934601809347019093480184EF8F
:1007A00091E0A0E0B0E08093F8019093F901A0936C
:1007B000FA01B093FB011092FC011092FD0110921E
:1007C000FE011092FF018091F0019091F101A09142
:1007D000F201B091F3018093F4019093F501A0939D
:1007E000F601B093F7010E947E016093F0017093CF
:1007F000F1018093F2019093F3010E947E016093D6
:10080000EC017093ED018093EE019093EF010E9453
:100810007E016B017C0168E271E080912C02909175
:100820002D020E94B3012AE041E050E060E070E058
:1008300080912C0290912D020E94C8016FE271E01C
:1008400080912C0290912D020E94B3012AE0B70101
:10085000A60180912C0290912D020E94C80161E3B3
:1008600071E080912C0290912D020E94B301809141
:10087000F0019091F101A091F201B091F301B70163
:10088000A601481B590B6A0B7B0B2AE080912C02B6
:1008900090912D020E94C80161E371E080912C02C9
:1008A00090912D020E94B3014091F0015091F1010D
:1008B0006091F2017091F3018091F4019091F50142
:1008C000A091F601B091F701481B590B6A0B7B0B05
:1008D0002AE080912C0290912D020E94C80163E3CE
:1008E00071E080912C0290912D020E94B3010E9430
:1008F0007E01AB01BC012AE080912C0290912D0277
:100900000E94C801E0902C02F0902D0265E371E096
:10091000C7010E94B3016FE171E0C7010E94B301FA
:1009200065E070E080E090E00E948A010E947E0114
:100930006093F0017093F1018093F2019093F301C1
:100940004B9B03C0409A5E9AFBCF40984698F8CFE5
:10095000EE0FFF1F0590F491E02D099481E090E0E7
:10096000F8940C94D504A1E21A2EAA1BBB1BFD011E
:100970000DC0AA1FBB1FEE1FFF1FA217B307E4077E
:10098000F50720F0A21BB30BE40BF50B661F771FD6
:10099000881F991F1A9469F76095709580959095B6
:0E09A0009B01AC01BD01CF010895F894FFCF7B
:1009AE00000000000B018700D400B200C600520107
:1009BE00564D4450565F317C315F564D4450560D66
:1009CE000A00535441525400564D4450455F003A6C
:0C09DE00323A007C005F564D445045004A
:107800000C94343C0C94513C0C94513C0C94513CE1
:107810000C94513C0C94513C0C94513C0C94513CB4
:107820000C94513C0C94513C0C94513C0C94513CA4
:107830000C94513C0C94513C0C94513C0C94513C94
:107840000C94513C0C94513C0C94513C0C94513C84
:107850000C94513C0C94513C0C94513C0C94513C74
:107860000C94513C0C94513C11241FBECFEFD8E036
:10787000DEBFCDBF11E0A0E0B1E0ECE9FFE702C060
:1078800005900D92A230B107D9F712E0A2E0B1E065
:1078900001C01D92AD30B107E1F70E942D3D0C945F
:1078A000CC3F0C94003C982F959595959595959582
:1078B000905D8F708A307CF0282F295A8091C0000B
:1078C00085FFFCCF9093C6008091C00085FFFCCF60
:1078D0002093C6000895282F205DF0CF982F809127
:1078E000C00085FFFCCF9093C6000895EF92FF92F1
:1078F0000F931F93EE24FF2487018091C00087FD22
:1079000017C00894E11CF11C011D111D81E4E8164B
:1079100082E4F8068FE0080780E0180770F3E09132
:107920000401F091050109958091C00087FFE9CF1E
:107930008091C6001F910F91FF90EF9008950E94D3
:10794000763C982F8091C00085FFFCCF9093C600B5
:1079500091362CF490330CF09053892F089597555D
:10796000892F08951F930E949F3C182F0E949F3CCF
:107970001295107F810F1F9108951F93182F882350
:1079800021F00E94763C1150E1F71F9108951F935A
:10799000182F0E94763C803249F0809103018F5F5E
:1079A000809303018530C1F01F9108958091C0003C
:1079B00085FFFCCF84E18093C6008091C00085FFE5
:1079C000FCCF1093C6008091C00085FFFCCF80E102
:1079D0008093C6001F910895E0910401F091050184
:1079E00009951F9108950E94763C803241F0809164
:1079F00003018F5F80930301853081F008958091AA
:107A0000C00085FFFCCF84E18093C6008091C00058
:107A100085FFFCCF80E18093C6000895E0910401CA
:107A2000F09105010995089540E951E08823A1F0FE
:107A30002D9A28EE33E0FA013197F1F721503040CA
:107A4000D1F72D9828EE33E0FA013197F1F7215064
:107A50003040D1F7815061F708953F924F925F9285
:107A60006F927F928F929F92AF92BF92CF92DF924E
:107A7000EF92FF920F931F93CF93DF93000080E16B
:107A80008093C4001092C50088E18093C10086E015
:107A90008093C2005098589A259A81E00E94143D24
:107AA00024E1F22E9EE1E92E85E9D82E0FE0C02ECA
:107AB00010E1B12EAA24A394B1E49B2EA6E58A2E50
:107AC000F2E57F2EE0E26E2E79E4572E63E5462E36
:107AD00050E5352E0E94763C8033B1F18133B9F107
:107AE000803409F46FC0813409F476C0823409F41B
:107AF00085C0853409F488C0803531F1823521F1A3
:107B0000813511F1853509F485C0863509F48DC0BC
:107B1000843609F496C0843709F403C1853709F423
:107B200072C1863709F466C0809103018F5F80932C
:107B30000301853079F6E0910401F0910501099582
:107B40000E94763C803351F60E94F33CC3CF0E94E2
:107B5000763C803249F78091C00085FFFCCFF092DF
:107B6000C6008091C00085FFFCCF9092C600809136
:107B7000C00085FFFCCF8092C6008091C00085FFC9
:107B8000FCCF7092C6008091C00085FFFCCF609250
:107B9000C6008091C00085FFFCCF5092C600809146
:107BA000C00085FFFCCF4092C6008091C00085FFD9
:107BB000FCCF3092C6008091C00085FFFCCFB09210
:107BC000C60088CF0E94763C863808F4BDCF0E945C
:107BD000763C0E94F33C7ECF0E94763C803809F4CC
:107BE0009CC0813809F40BC1823809F43CC1883942
:107BF00009F48FC080E00E94C73C6CCF84E10E94F2
:107C0000BD3C0E94F33C66CF85E00E94BD3C0E94D3
:107C1000F33C60CF0E94763C809306010E94763C44
:107C2000809307010E94F33C55CF0E94763C80333D
:107C300009F41DC183E00E94BD3C80E00E94C73C66
:107C400049CF0E94763C809309020E94763C809343
:107C5000080280910C028E7F80930C020E94763C79
:107C6000853409F415C18091080290910902892B8D
:107C700089F000E010E00E94763CF801E85FFE4FDA
:107C800080830F5F1F4F80910802909109020817AF
:107C9000190788F30E94763C803209F045CF809125
:107CA0000C0280FF01C16091060170910701660F0F
:107CB000771F7093070160930601A0910802B091AD
:107CC00009021097C9F0E8E0F1E09B01AD014E0F09
:107CD0005F1FF999FECF32BD21BD819180BDFA9A17
:107CE000F99A2F5F3F4FE417F50799F76A0F7B1F4B
:107CF00070930701609306018091C00085FFFCCF5F
:107D0000F092C6008091C00085FFFCCFB092C60003
:107D1000E1CE83E00E94C73CDDCE82E00E94C73CFA
:107D2000D9CE0E94763C809309020E94763C8093D3
:107D300008028091060190910701880F991F909386
:107D40000701809306010E94763C853409F4A6C0A1
:107D500080910C028E7F80930C020E94763C8032D0
:107D600009F0B8CE8091C00085FFFCCFF092C6002C
:107D7000609108027091090261157105B9F140E046
:107D800050E080910C02A82FA170B82FB27011C0E2
:107D9000BB2309F45CC0E0910601F0910701319624
:107DA000F0930701E09306014F5F5F4F46175707B7
:107DB000E8F4AA2369F3F999FECF209106013091E6
:107DC000070132BD21BDF89A90B58091C00085FFB2
:107DD000FCCF9093C6002F5F3F4F30930701209355
:107DE00006014F5F5F4F4617570718F38091C00099
:107DF00085FDE5CE8091C00085FFF8CFE0CE81E023
:107E00000E94C73C67CE0E94763C803209F08CCE3F
:107E10008091C00085FFFCCFF092C6008091C00029
:107E200085FFFCCFE092C6008091C00085FFFCCFAB
:107E3000D092C6008091C00085FFFCCFC092C600E2
:107E40008091C00085FFFCCFB092C60043CEE09188
:107E50000601F091070194918091C00085FFFCCF4D
:107E60009093C6009CCF80E10E94C73C33CE0E9415
:107E7000763C0E94763C182F0E94763C112309F430
:107E800083C0113009F484C08FE00E94C73C22CE29
:107E900080910C02816080930C02E5CE80910C02EF
:107EA000816080930C0259CF809107018823880F4D
:107EB000880B8A2180930B02809106019091070123
:107EC000880F991F90930701809306018091080203
:107ED00080FF09C080910802909109020196909359
:107EE000090280930802F894F999FECF1127E091D6
:107EF0000601F0910701C8E0D1E08091080290915D
:107F00000902103091F40091570001700130D9F34B
:107F100003E000935700E89500915700017001308D
:107F2000D9F301E100935700E89509901990009169
:107F3000570001700130D9F301E000935700E89534
:107F40001395103498F011270091570001700130FB
:107F5000D9F305E000935700E895009157000170B0
:107F60000130D9F301E100935700E895329602976A
:107F700009F0C7CF103011F00296E5CF112480919F
:107F8000C00085FFB9CEBCCE8EE10E94C73CA2CD19
:0C7F900085E90E94C73C9ECDF894FFCF0D
:027F9C00800063
:040000030000780081
:00000001FF